:100000000C9434000C943E000C943E000C943E0082
:100010000C943E000C943E000C943E000C943E0068
:100020000C943E000C943E000C943E000C943E0058
:100030000C943E000C943E000C943E000C943E0048
:100040000C943E000C943E000C943E000C943E0038
:100050000C943E000C943E000C943E000C943E0028
:100060000C943E000C943E0011241FBECFEFD8E04C
:10007000DEBFCDBF0E9440000C9491000C940000A4
:10008000CF93DF93509A519A529A539A549A559A11
:10009000569A579A22982A9A589A599A5A9A5B9A33
:1000A0005C9A5D9A5E9A5F9A80ED97E020E931E074
:1000B000F9013197F1F70197D9F7E0E062E370E0D9
:1000C00040E050E028EC30E0F1E0C1E0D0E0A0EA10
:1000D000BFE01A9B03C062E370E006C0615070404D
:1000E00019F4EF2768E873E1EE23B9F021503040AE
:1000F000A1F4483051051CF040E050E00CC02BB199
:10010000CE01042E02C0880F991F0A94E2F7282717
:100110002BB94F5F5F4F28EC30E0CD010197F1F72D
:06012000D8CFF894FFCFD8
:00000001FF
