:100000000C9434000C943E000C943E000C943E0082
:100010000C943E000C943E000C943E000C943E0068
:100020000C943E000C943E000C943E000C943E0058
:100030000C943E000C943E000C943E000C943E0048
:100040000C943E000C943E000C943E000C943E0038
:100050000C943E000C943E000C943E000C943E0028
:100060000C943E000C943E0011241FBECFEFD8E04C
:10007000DEBFCDBF0E9440000C945A000C940000DB
:10008000539A20ED37E040E951E005C0CA010197DD
:10009000F1F72150304021153105C1F75B9A80ED11
:1000A00097E0FA013197F1F70197D9F75B9820EDC6
:0800B00037E0ECCFF894FFCF1C
:00000001FF
